{
  "contractName": "Bridge",
  "abi": [
    {
      "inputs": [
        {
          "internalType": "uint8",
          "name": "chainID",
          "type": "uint8"
        },
        {
          "internalType": "address[]",
          "name": "initialRelayers",
          "type": "address[]"
        },
        {
          "internalType": "uint256",
          "name": "initialRelayerThreshold",
          "type": "uint256"
        },
        {
          "internalType": "uint256",
          "name": "fee",
          "type": "uint256"
        },
        {
          "internalType": "uint256",
          "name": "expiry",
          "type": "uint256"
        }
      ],
      "stateMutability": "nonpayable",
      "type": "constructor"
    },
    {
      "anonymous": false,
      "inputs": [
        {
          "indexed": false,
          "internalType": "uint8",
          "name": "destinationChainID",
          "type": "uint8"
        },
        {
          "indexed": false,
          "internalType": "bytes32",
          "name": "resourceID",
          "type": "bytes32"
        },
        {
          "indexed": false,
          "internalType": "uint64",
          "name": "depositNonce",
          "type": "uint64"
        }
      ],
      "name": "Deposit",
      "type": "event"
    },
    {
      "anonymous": false,
      "inputs": [
        {
          "indexed": false,
          "internalType": "address",
          "name": "account",
          "type": "address"
        }
      ],
      "name": "Paused",
      "type": "event"
    },
    {
      "anonymous": false,
      "inputs": [
        {
          "indexed": false,
          "internalType": "uint8",
          "name": "originChainID",
          "type": "uint8"
        },
        {
          "indexed": false,
          "internalType": "uint64",
          "name": "depositNonce",
          "type": "uint64"
        },
        {
          "indexed": false,
          "internalType": "enum Bridge.ProposalStatus",
          "name": "status",
          "type": "uint8"
        },
        {
          "indexed": false,
          "internalType": "bytes32",
          "name": "dataHash",
          "type": "bytes32"
        }
      ],
      "name": "ProposalEvent",
      "type": "event"
    },
    {
      "anonymous": false,
      "inputs": [
        {
          "indexed": false,
          "internalType": "uint8",
          "name": "originChainID",
          "type": "uint8"
        },
        {
          "indexed": false,
          "internalType": "uint64",
          "name": "depositNonce",
          "type": "uint64"
        },
        {
          "indexed": false,
          "internalType": "enum Bridge.ProposalStatus",
          "name": "status",
          "type": "uint8"
        },
        {
          "indexed": false,
          "internalType": "bytes32",
          "name": "dataHash",
          "type": "bytes32"
        }
      ],
      "name": "ProposalVote",
      "type": "event"
    },
    {
      "anonymous": false,
      "inputs": [
        {
          "indexed": false,
          "internalType": "address",
          "name": "relayer",
          "type": "address"
        }
      ],
      "name": "RelayerAdded",
      "type": "event"
    },
    {
      "anonymous": false,
      "inputs": [
        {
          "indexed": false,
          "internalType": "address",
          "name": "relayer",
          "type": "address"
        }
      ],
      "name": "RelayerRemoved",
      "type": "event"
    },
    {
      "anonymous": false,
      "inputs": [
        {
          "indexed": false,
          "internalType": "uint256",
          "name": "newThreshold",
          "type": "uint256"
        }
      ],
      "name": "RelayerThresholdChanged",
      "type": "event"
    },
    {
      "anonymous": false,
      "inputs": [
        {
          "indexed": true,
          "internalType": "bytes32",
          "name": "role",
          "type": "bytes32"
        },
        {
          "indexed": true,
          "internalType": "address",
          "name": "account",
          "type": "address"
        },
        {
          "indexed": true,
          "internalType": "address",
          "name": "sender",
          "type": "address"
        }
      ],
      "name": "RoleGranted",
      "type": "event"
    },
    {
      "anonymous": false,
      "inputs": [
        {
          "indexed": true,
          "internalType": "bytes32",
          "name": "role",
          "type": "bytes32"
        },
        {
          "indexed": true,
          "internalType": "address",
          "name": "account",
          "type": "address"
        },
        {
          "indexed": true,
          "internalType": "address",
          "name": "sender",
          "type": "address"
        }
      ],
      "name": "RoleRevoked",
      "type": "event"
    },
    {
      "anonymous": false,
      "inputs": [
        {
          "indexed": false,
          "internalType": "address",
          "name": "account",
          "type": "address"
        }
      ],
      "name": "Unpaused",
      "type": "event"
    },
    {
      "inputs": [],
      "name": "DEFAULT_ADMIN_ROLE",
      "outputs": [
        {
          "internalType": "bytes32",
          "name": "",
          "type": "bytes32"
        }
      ],
      "stateMutability": "view",
      "type": "function"
    },
    {
      "inputs": [],
      "name": "MAX_RELAYERS",
      "outputs": [
        {
          "internalType": "uint256",
          "name": "",
          "type": "uint256"
        }
      ],
      "stateMutability": "view",
      "type": "function"
    },
    {
      "inputs": [],
      "name": "RELAYER_ROLE",
      "outputs": [
        {
          "internalType": "bytes32",
          "name": "",
          "type": "bytes32"
        }
      ],
      "stateMutability": "view",
      "type": "function"
    },
    {
      "inputs": [],
      "name": "_chainID",
      "outputs": [
        {
          "internalType": "uint8",
          "name": "",
          "type": "uint8"
        }
      ],
      "stateMutability": "view",
      "type": "function"
    },
    {
      "inputs": [
        {
          "internalType": "uint8",
          "name": "",
          "type": "uint8"
        }
      ],
      "name": "_depositCounts",
      "outputs": [
        {
          "internalType": "uint64",
          "name": "",
          "type": "uint64"
        }
      ],
      "stateMutability": "view",
      "type": "function"
    },
    {
      "inputs": [],
      "name": "_expiry",
      "outputs": [
        {
          "internalType": "uint40",
          "name": "",
          "type": "uint40"
        }
      ],
      "stateMutability": "view",
      "type": "function"
    },
    {
      "inputs": [],
      "name": "_fee",
      "outputs": [
        {
          "internalType": "uint128",
          "name": "",
          "type": "uint128"
        }
      ],
      "stateMutability": "view",
      "type": "function"
    },
    {
      "inputs": [],
      "name": "_relayerThreshold",
      "outputs": [
        {
          "internalType": "uint8",
          "name": "",
          "type": "uint8"
        }
      ],
      "stateMutability": "view",
      "type": "function"
    },
    {
      "inputs": [
        {
          "internalType": "bytes32",
          "name": "",
          "type": "bytes32"
        }
      ],
      "name": "_resourceIDToHandlerAddress",
      "outputs": [
        {
          "internalType": "address",
          "name": "",
          "type": "address"
        }
      ],
      "stateMutability": "view",
      "type": "function"
    },
    {
      "inputs": [
        {
          "internalType": "bytes32",
          "name": "role",
          "type": "bytes32"
        }
      ],
      "name": "getRoleAdmin",
      "outputs": [
        {
          "internalType": "bytes32",
          "name": "",
          "type": "bytes32"
        }
      ],
      "stateMutability": "view",
      "type": "function"
    },
    {
      "inputs": [
        {
          "internalType": "bytes32",
          "name": "role",
          "type": "bytes32"
        },
        {
          "internalType": "uint256",
          "name": "index",
          "type": "uint256"
        }
      ],
      "name": "getRoleMember",
      "outputs": [
        {
          "internalType": "address",
          "name": "",
          "type": "address"
        }
      ],
      "stateMutability": "view",
      "type": "function"
    },
    {
      "inputs": [
        {
          "internalType": "bytes32",
          "name": "role",
          "type": "bytes32"
        }
      ],
      "name": "getRoleMemberCount",
      "outputs": [
        {
          "internalType": "uint256",
          "name": "",
          "type": "uint256"
        }
      ],
      "stateMutability": "view",
      "type": "function"
    },
    {
      "inputs": [
        {
          "internalType": "bytes32",
          "name": "role",
          "type": "bytes32"
        },
        {
          "internalType": "address",
          "name": "account",
          "type": "address"
        }
      ],
      "name": "getRoleMemberIndex",
      "outputs": [
        {
          "internalType": "uint256",
          "name": "",
          "type": "uint256"
        }
      ],
      "stateMutability": "view",
      "type": "function"
    },
    {
      "inputs": [
        {
          "internalType": "bytes32",
          "name": "role",
          "type": "bytes32"
        },
        {
          "internalType": "address",
          "name": "account",
          "type": "address"
        }
      ],
      "name": "grantRole",
      "outputs": [],
      "stateMutability": "nonpayable",
      "type": "function"
    },
    {
      "inputs": [
        {
          "internalType": "bytes32",
          "name": "role",
          "type": "bytes32"
        },
        {
          "internalType": "address",
          "name": "account",
          "type": "address"
        }
      ],
      "name": "hasRole",
      "outputs": [
        {
          "internalType": "bool",
          "name": "",
          "type": "bool"
        }
      ],
      "stateMutability": "view",
      "type": "function"
    },
    {
      "inputs": [],
      "name": "paused",
      "outputs": [
        {
          "internalType": "bool",
          "name": "",
          "type": "bool"
        }
      ],
      "stateMutability": "view",
      "type": "function"
    },
    {
      "inputs": [
        {
          "internalType": "bytes32",
          "name": "role",
          "type": "bytes32"
        },
        {
          "internalType": "address",
          "name": "account",
          "type": "address"
        }
      ],
      "name": "renounceRole",
      "outputs": [],
      "stateMutability": "nonpayable",
      "type": "function"
    },
    {
      "inputs": [
        {
          "internalType": "bytes32",
          "name": "role",
          "type": "bytes32"
        },
        {
          "internalType": "address",
          "name": "account",
          "type": "address"
        }
      ],
      "name": "revokeRole",
      "outputs": [],
      "stateMutability": "nonpayable",
      "type": "function"
    },
    {
      "inputs": [
        {
          "internalType": "uint72",
          "name": "destNonce",
          "type": "uint72"
        },
        {
          "internalType": "bytes32",
          "name": "dataHash",
          "type": "bytes32"
        },
        {
          "internalType": "address",
          "name": "relayer",
          "type": "address"
        }
      ],
      "name": "_hasVotedOnProposal",
      "outputs": [
        {
          "internalType": "bool",
          "name": "",
          "type": "bool"
        }
      ],
      "stateMutability": "view",
      "type": "function"
    },
    {
      "inputs": [
        {
          "internalType": "address",
          "name": "relayer",
          "type": "address"
        }
      ],
      "name": "isRelayer",
      "outputs": [
        {
          "internalType": "bool",
          "name": "",
          "type": "bool"
        }
      ],
      "stateMutability": "view",
      "type": "function"
    },
    {
      "inputs": [
        {
          "internalType": "address",
          "name": "newAdmin",
          "type": "address"
        }
      ],
      "name": "renounceAdmin",
      "outputs": [],
      "stateMutability": "nonpayable",
      "type": "function"
    },
    {
      "inputs": [],
      "name": "adminPauseTransfers",
      "outputs": [],
      "stateMutability": "nonpayable",
      "type": "function"
    },
    {
      "inputs": [],
      "name": "adminUnpauseTransfers",
      "outputs": [],
      "stateMutability": "nonpayable",
      "type": "function"
    },
    {
      "inputs": [
        {
          "internalType": "uint256",
          "name": "newThreshold",
          "type": "uint256"
        }
      ],
      "name": "adminChangeRelayerThreshold",
      "outputs": [],
      "stateMutability": "nonpayable",
      "type": "function"
    },
    {
      "inputs": [
        {
          "internalType": "address",
          "name": "relayerAddress",
          "type": "address"
        }
      ],
      "name": "adminAddRelayer",
      "outputs": [],
      "stateMutability": "nonpayable",
      "type": "function"
    },
    {
      "inputs": [
        {
          "internalType": "address",
          "name": "relayerAddress",
          "type": "address"
        }
      ],
      "name": "adminRemoveRelayer",
      "outputs": [],
      "stateMutability": "nonpayable",
      "type": "function"
    },
    {
      "inputs": [
        {
          "internalType": "address",
          "name": "handlerAddress",
          "type": "address"
        },
        {
          "internalType": "bytes32",
          "name": "resourceID",
          "type": "bytes32"
        },
        {
          "internalType": "address",
          "name": "tokenAddress",
          "type": "address"
        }
      ],
      "name": "adminSetResource",
      "outputs": [],
      "stateMutability": "nonpayable",
      "type": "function"
    },
    {
      "inputs": [
        {
          "internalType": "address",
          "name": "handlerAddress",
          "type": "address"
        },
        {
          "internalType": "bytes32",
          "name": "resourceID",
          "type": "bytes32"
        },
        {
          "internalType": "address",
          "name": "contractAddress",
          "type": "address"
        },
        {
          "internalType": "bytes4",
          "name": "depositFunctionSig",
          "type": "bytes4"
        },
        {
          "internalType": "uint256",
          "name": "depositFunctionDepositerOffset",
          "type": "uint256"
        },
        {
          "internalType": "bytes4",
          "name": "executeFunctionSig",
          "type": "bytes4"
        }
      ],
      "name": "adminSetGenericResource",
      "outputs": [],
      "stateMutability": "nonpayable",
      "type": "function"
    },
    {
      "inputs": [
        {
          "internalType": "address",
          "name": "handlerAddress",
          "type": "address"
        },
        {
          "internalType": "address",
          "name": "tokenAddress",
          "type": "address"
        }
      ],
      "name": "adminSetBurnable",
      "outputs": [],
      "stateMutability": "nonpayable",
      "type": "function"
    },
    {
      "inputs": [
        {
          "internalType": "uint8",
          "name": "originChainID",
          "type": "uint8"
        },
        {
          "internalType": "uint64",
          "name": "depositNonce",
          "type": "uint64"
        },
        {
          "internalType": "bytes32",
          "name": "dataHash",
          "type": "bytes32"
        }
      ],
      "name": "getProposal",
      "outputs": [
        {
          "components": [
            {
              "internalType": "enum Bridge.ProposalStatus",
              "name": "_status",
              "type": "uint8"
            },
            {
              "internalType": "uint200",
              "name": "_yesVotes",
              "type": "uint200"
            },
            {
              "internalType": "uint8",
              "name": "_yesVotesTotal",
              "type": "uint8"
            },
            {
              "internalType": "uint40",
              "name": "_proposedBlock",
              "type": "uint40"
            }
          ],
          "internalType": "struct Bridge.Proposal",
          "name": "",
          "type": "tuple"
        }
      ],
      "stateMutability": "view",
      "type": "function"
    },
    {
      "inputs": [],
      "name": "_totalRelayers",
      "outputs": [
        {
          "internalType": "uint256",
          "name": "",
          "type": "uint256"
        }
      ],
      "stateMutability": "view",
      "type": "function"
    },
    {
      "inputs": [
        {
          "internalType": "uint256",
          "name": "newFee",
          "type": "uint256"
        }
      ],
      "name": "adminChangeFee",
      "outputs": [],
      "stateMutability": "nonpayable",
      "type": "function"
    },
    {
      "inputs": [
        {
          "internalType": "address",
          "name": "handlerAddress",
          "type": "address"
        },
        {
          "internalType": "address",
          "name": "tokenAddress",
          "type": "address"
        },
        {
          "internalType": "address",
          "name": "recipient",
          "type": "address"
        },
        {
          "internalType": "uint256",
          "name": "amountOrTokenID",
          "type": "uint256"
        }
      ],
      "name": "adminWithdraw",
      "outputs": [],
      "stateMutability": "nonpayable",
      "type": "function"
    },
    {
      "inputs": [
        {
          "internalType": "uint8",
          "name": "destinationChainID",
          "type": "uint8"
        },
        {
          "internalType": "bytes32",
          "name": "resourceID",
          "type": "bytes32"
        },
        {
          "internalType": "bytes",
          "name": "data",
          "type": "bytes"
        }
      ],
      "name": "deposit",
      "outputs": [],
      "stateMutability": "payable",
      "type": "function"
    },
    {
      "inputs": [
        {
          "internalType": "uint8",
          "name": "chainID",
          "type": "uint8"
        },
        {
          "internalType": "uint64",
          "name": "depositNonce",
          "type": "uint64"
        },
        {
          "internalType": "bytes32",
          "name": "resourceID",
          "type": "bytes32"
        },
        {
          "internalType": "bytes32",
          "name": "dataHash",
          "type": "bytes32"
        }
      ],
      "name": "voteProposal",
      "outputs": [],
      "stateMutability": "nonpayable",
      "type": "function"
    },
    {
      "inputs": [
        {
          "internalType": "uint8",
          "name": "chainID",
          "type": "uint8"
        },
        {
          "internalType": "uint64",
          "name": "depositNonce",
          "type": "uint64"
        },
        {
          "internalType": "bytes32",
          "name": "dataHash",
          "type": "bytes32"
        }
      ],
      "name": "cancelProposal",
      "outputs": [],
      "stateMutability": "nonpayable",
      "type": "function"
    },
    {
      "inputs": [
        {
          "internalType": "uint8",
          "name": "chainID",
          "type": "uint8"
        },
        {
          "internalType": "uint64",
          "name": "depositNonce",
          "type": "uint64"
        },
        {
          "internalType": "bytes",
          "name": "data",
          "type": "bytes"
        },
        {
          "internalType": "bytes32",
          "name": "resourceID",
          "type": "bytes32"
        }
      ],
      "name": "executeProposal",
      "outputs": [],
      "stateMutability": "nonpayable",
      "type": "function"
    },
    {
      "inputs": [
        {
          "internalType": "address payable[]",
          "name": "addrs",
          "type": "address[]"
        },
        {
          "internalType": "uint256[]",
          "name": "amounts",
          "type": "uint256[]"
        }
      ],
      "name": "transferFunds",
      "outputs": [],
      "stateMutability": "nonpayable",
      "type": "function"
    }
  ],
  "bytecode": "0x60806040523480156200001157600080fd5b5060405162003088380380620030888339810160408190526200003491620003a3565b6000805460ff199081169091556002805490911660ff871617905562000066836200016d602090811b620017ba17901c565b600260016101000a81548160ff021916908360ff1602179055506200009682620001a060201b620017e11760201c565b6002806101000a8154816001600160801b0302191690836001600160801b03160217905550620000d181620001c860201b620018061760201c565b6002805464ffffffffff92909216600160901b0264ffffffffff60901b1990921691909117905562000105600033620001f2565b60005b84518110156200016157620001587fe2b7fb3b832174769106daebcfd6d1970523240dda11281102db9363b83b0dc48683815181106200014457fe5b60200260200101516200020260201b60201c565b60010162000108565b505050505050620005cb565b600061010082106200019c5760405162461bcd60e51b815260040162000193906200053a565b60405180910390fd5b5090565b6000600160801b82106200019c5760405162461bcd60e51b81526004016200019390620004cc565b60006501000000000082106200019c5760405162461bcd60e51b8152600401620001939062000503565b620001fe828262000248565b5050565b600082815260016020526040902060020154620002299062000223620002c3565b620002c7565b620001f25760405162461bcd60e51b815260040162000193906200047d565b60008281526001602090815260409091206200026f9183906200182d620002f6821b17901c565b15620001fe576200027f620002c3565b6001600160a01b0316816001600160a01b0316837f2f8788117e7eff1d82e926ec794901d17c78024a50270940304540a733656f0d60405160405180910390a45050565b3390565b60008281526001602090815260408220620002ed918490620018426200030d821b17901c565b90505b92915050565b6000620002ed836001600160a01b03841662000324565b6000620002ed836001600160a01b03841662000373565b600062000332838362000373565b6200036a57508154600181810184556000848152602080822090930184905584548482528286019093526040902091909155620002f0565b506000620002f0565b60009081526001919091016020526040902054151590565b80516001600160a01b0381168114620002f057600080fd5b600080600080600060a08688031215620003bb578081fd5b8551620003c881620005b8565b602087810151919650906001600160401b03811115620003e6578283fd5b8701601f81018913620003f7578283fd5b80516200040e620004088262000598565b62000571565b81815283810190838501858402850186018d10156200042b578687fd5b8694505b838510156200045957620004448d826200038b565b8352600194909401939185019185016200042f565b5060408b015160608c01516080909c01519a9d919c509a9998509650505050505050565b6020808252602f908201527f416363657373436f6e74726f6c3a2073656e646572206d75737420626520616e60408201526e0818591b5a5b881d1bc819dc985b9d608a1b606082015260800190565b6020808252601e908201527f76616c756520646f6573206e6f742066697420696e2031323820626974730000604082015260600190565b6020808252601d908201527f76616c756520646f6573206e6f742066697420696e2034302062697473000000604082015260600190565b6020808252601c908201527f76616c756520646f6573206e6f742066697420696e2038206269747300000000604082015260600190565b6040518181016001600160401b03811182821017156200059057600080fd5b604052919050565b60006001600160401b03821115620005ae578081fd5b5060209081020190565b60ff81168114620005c857600080fd5b50565b612aad80620005db6000396000f3fe6080604052600436106102255760003560e01c806384db809f11610123578063a9cf69fa116100ab578063cb10f2151161006f578063cb10f2151461064d578063cdb0f73a1461066d578063d547741f1461068d578063d7a9cd79146106ad578063ffaac0eb146106c257610225565b8063a9cf69fa1461059a578063beab7131146105c7578063c5b37c22146105e9578063c5ec89701461060b578063ca15c8731461062d57610225565b806391d14854116100f257806391d148541461051b578063926d7d7f1461053b5780639d82dd63146105505780639debb3bd14610570578063a217fddf1461058557610225565b806384db809f1461048e5780638c0c2631146104bb5780639010d07c146104db57806391c404ac146104fb57610225565b80634e056005116101b15780635e1fab0f116101755780635e1fab0f14610404578063780cf004146104245780637febe63f14610444578063802aabe81461046457806380ae1c281461047957610225565b80634e056005146103625780634e0df3f614610382578063541d5548146103a25780635a1ad87c146103cf5780635c975abb146103ef57610225565b80632f2ff15d116101f85780632f2ff15d146102b557806336568abe146102d55780634454b20d146102f55780634603ae38146103155780634b0b919d1461033557610225565b806305e2ca171461022a57806317f03ce51461023f5780631ff013f11461025f578063248a9ca31461027f575b600080fd5b61023d61023836600461205a565b6106d7565b005b34801561024b57600080fd5b5061023d61025a3660046120a6565b610831565b34801561026b57600080fd5b5061023d61027a3660046120e3565b610a4d565b34801561028b57600080fd5b5061029f61029a366004611fb8565b610df1565b6040516102ac9190612233565b60405180910390f35b3480156102c157600080fd5b5061023d6102d0366004611fd0565b610e09565b3480156102e157600080fd5b5061023d6102f0366004611fd0565b610e51565b34801561030157600080fd5b5061023d610310366004612132565b610e93565b34801561032157600080fd5b5061023d610330366004611f50565b610ffa565b34801561034157600080fd5b5061035561035036600461203f565b611088565b6040516102ac9190612985565b34801561036e57600080fd5b5061023d61037d366004611fb8565b6110a3565b34801561038e57600080fd5b5061029f61039d366004611fd0565b611108565b3480156103ae57600080fd5b506103c26103bd366004611dfc565b611134565b6040516102ac9190612228565b3480156103db57600080fd5b5061023d6103ea366004611ee1565b61114e565b3480156103fb57600080fd5b506103c26111e8565b34801561041057600080fd5b5061023d61041f366004611dfc565b6111f1565b34801561043057600080fd5b5061023d61043f366004611e50565b61123b565b34801561045057600080fd5b506103c261045f366004612015565b6112ae565b34801561047057600080fd5b5061029f611346565b34801561048557600080fd5b5061023d611364565b34801561049a57600080fd5b506104ae6104a9366004611fb8565b611376565b6040516102ac91906121f0565b3480156104c757600080fd5b5061023d6104d6366004611e18565b611391565b3480156104e757600080fd5b506104ae6104f6366004611ff4565b6113fe565b34801561050757600080fd5b5061023d610516366004611fb8565b61141d565b34801561052757600080fd5b506103c2610536366004611fd0565b611487565b34801561054757600080fd5b5061029f61149f565b34801561055c57600080fd5b5061023d61056b366004611dfc565b6114b1565b34801561057c57600080fd5b5061029f61152c565b34801561059157600080fd5b5061029f611531565b3480156105a657600080fd5b506105ba6105b53660046120a6565b611536565b6040516102ac9190612917565b3480156105d357600080fd5b506105dc6115e5565b6040516102ac9190612999565b3480156105f557600080fd5b506105fe6115ee565b6040516102ac919061295f565b34801561061757600080fd5b50610620611603565b6040516102ac9190612973565b34801561063957600080fd5b5061029f610648366004611fb8565b611617565b34801561065957600080fd5b5061023d610668366004611ea0565b61162e565b34801561067957600080fd5b5061023d610688366004611dfc565b6116bf565b34801561069957600080fd5b5061023d6106a8366004611fd0565b611762565b3480156106b957600080fd5b506105dc61179c565b3480156106ce57600080fd5b5061023d6117aa565b6106df611857565b6002546201000090046001600160801b031634146107185760405162461bcd60e51b815260040161070f90612548565b60405180910390fd5b6000838152600460205260409020546001600160a01b03168061074d5760405162461bcd60e51b815260040161070f906125e6565b60ff851660009081526003602052604090819020805467ffffffffffffffff19811660016001600160401b03928316019182161790915590516338995da960e01b815282906001600160a01b038216906338995da9906107bb9089908b90879033908c908c906004016122ac565b600060405180830381600087803b1580156107d557600080fd5b505af11580156107e9573d6000803e3d6000fd5b505050507fdbb69440df8433824a026ef190652f29929eb64b4d1d5d2a69be8afe3e6eaed8878784604051610820939291906129a7565b60405180910390a150505050505050565b61083961187a565b68ffffffffffffffff00600883901b1660ff841617610856611d24565b6001600160481b0382166000908152600560209081526040808320868452909152908190208151608081019092528054829060ff16600481111561089657fe5b60048111156108a157fe5b8152905461010081046001600160c81b03166020830152600160d01b810460ff166040830152600160d81b900464ffffffffff16606090910152805190915060018160048111156108ee57fe5b14806109055750600281600481111561090357fe5b145b6109215760405162461bcd60e51b815260040161070f90612578565b600254606083015164ffffffffff600160901b909204821691610946914391166118bf565b64ffffffffff161161096a5760405162461bcd60e51b815260040161070f906126d7565b60048083526001600160481b03841660009081526005602090815260408083208884529091529020835181548593839160ff19169060019084908111156109ad57fe5b02179055506020820151815460408085015160609095015164ffffffffff16600160d81b026001600160d81b0360ff909616600160d01b0260ff60d01b196001600160c81b0390951661010002610100600160d01b03199094169390931793909316919091179390931617905551600080516020612a3883398151915290610a3d908890889060049089906129cb565b60405180910390a1505050505050565b610a55611901565b610a5d611857565b68ffffffffffffffff00600884901b1660ff851617610a7a611d24565b6001600160481b0382166000908152600560209081526040808320868452909152908190208151608081019092528054829060ff166004811115610aba57fe5b6004811115610ac557fe5b8152905461010081046001600160c81b0316602080840191909152600160d01b820460ff16604080850191909152600160d81b90920464ffffffffff16606090930192909252600087815260049092529020549091506001600160a01b0316610b405760405162461bcd60e51b815260040161070f90612891565b80516001906004811115610b5057fe5b1115610b6e5760405162461bcd60e51b815260040161070f906127a4565b610b788133611935565b15610b955760405162461bcd60e51b815260040161070f90612416565b600081516004811115610ba457fe5b1415610c0557506040805160808101825260018082526000602083018190528284015264ffffffffff4316606083015291519091600080516020612a3883398151915291610bf891899189919088906129cb565b60405180910390a1610c67565b600254606082015164ffffffffff600160901b909204821691610c2a914391166118bf565b64ffffffffff161115610c67576004808252604051600080516020612a3883398151915291610c5e918991899188906129cb565b60405180910390a15b600481516004811115610c7657fe5b14610d3e57610c9b610c8733611958565b82602001516001600160c81b031617611986565b6001600160c81b031660208201526040808201805160010160ff169052815190517f25f8daaa4635a7729927ba3f5b3d59cc3320aca7c32c9db4e7ca7b957434364091610ced918991899188906129cb565b60405180910390a1600254604082015160ff6101009092048216911610610d3e576002808252604051600080516020612a3883398151915291610d35918991899188906129cb565b60405180910390a15b6001600160481b038216600090815260056020908152604080832086845290915290208151815483929190829060ff19166001836004811115610d7d57fe5b021790555060208201518154604084015160609094015164ffffffffff16600160d81b026001600160d81b0360ff909516600160d01b0260ff60d01b196001600160c81b0390941661010002610100600160d01b031990931692909217929092161792909216919091179055505050505050565b6000818152600160205260409020600201545b919050565b600082815260016020526040902060020154610e27906105366119ab565b610e435760405162461bcd60e51b815260040161070f906123c7565b610e4d82826119af565b5050565b610e596119ab565b6001600160a01b0316816001600160a01b031614610e895760405162461bcd60e51b815260040161070f906128c8565b610e4d8282611a18565b610e9b611901565b610ea3611857565b60008181526004602090815260408083205490516001600160a01b039091169268ffffffffffffffff00600889901b1660ff8a1617929091610eeb91859189918991016121c4565b60408051601f1981840301815291815281516020928301206001600160481b03851660009081526005845282812082825290935291209091506002815460ff166004811115610f3657fe5b14610f535760405162461bcd60e51b815260040161070f906126a2565b805460ff1916600317815560405163712467f960e11b815284906001600160a01b0382169063e248cff290610f909089908c908c90600401612289565b600060405180830381600087803b158015610faa57600080fd5b505af1158015610fbe573d6000803e3d6000fd5b50505050600080516020612a388339815191528a8a600386604051610fe694939291906129cb565b60405180910390a150505050505050505050565b611002611a81565b60005b838110156110815784848281811061101957fe5b905060200201602081019061102e9190611dfc565b6001600160a01b03166108fc84848481811061104657fe5b905060200201359081150290604051600060405180830381858888f19350505050158015611078573d6000803e3d6000fd5b50600101611005565b5050505050565b6003602052600090815260409020546001600160401b031681565b6110ab611a81565b6110b4816117ba565b600260016101000a81548160ff021916908360ff1602179055507fa20d6b84cd798a24038be305eff8a45ca82ef54a2aa2082005d8e14c0a4746c8816040516110fd9190612233565b60405180910390a150565b60008281526001602081815260408084206001600160a01b038616855290920190529020545b92915050565b600061112e600080516020612a5883398151915283611487565b611156611a81565b60008581526004602081905260409182902080546001600160a01b0319166001600160a01b038a16908117909155915163de319d9960e01b815288929163de319d99916111ad918a918a918a918a918a9101612253565b600060405180830381600087803b1580156111c757600080fd5b505af11580156111db573d6000803e3d6000fd5b5050505050505050505050565b60005460ff1690565b6111f9611a81565b336001600160a01b03821614156112225760405162461bcd60e51b815260040161070f9061276d565b61122d600082610e09565b611238600033610e51565b50565b611243611a81565b604051636ce5768960e11b815284906001600160a01b0382169063d9caed129061127590879087908790600401612204565b600060405180830381600087803b15801561128f57600080fd5b505af11580156112a3573d6000803e3d6000fd5b505050505050505050565b6001600160481b0383166000908152600560209081526040808320858452909152808220815160808101909252805461133e929190829060ff1660048111156112f357fe5b60048111156112fe57fe5b8152905461010081046001600160c81b03166020830152600160d01b810460ff166040830152600160d81b900464ffffffffff1660609091015283611935565b949350505050565b600061135f600080516020612a58833981519152611617565b905090565b61136c611a81565b611374611aa8565b565b6004602052600090815260409020546001600160a01b031681565b611399611a81565b6040516307b7ed9960e01b815282906001600160a01b038216906307b7ed99906113c79085906004016121f0565b600060405180830381600087803b1580156113e157600080fd5b505af11580156113f5573d6000803e3d6000fd5b50505050505050565b60008281526001602052604081206114169083611af7565b9392505050565b611425611a81565b6002546201000090046001600160801b03168114156114565760405162461bcd60e51b815260040161070f9061285a565b61145f816117e1565b6002806101000a8154816001600160801b0302191690836001600160801b0316021790555050565b60008281526001602052604081206114169083611842565b600080516020612a5883398151915281565b6114c9600080516020612a5883398151915282611487565b6114e55760405162461bcd60e51b815260040161070f90612473565b6114fd600080516020612a5883398151915282611762565b7f10e1f7ce9fd7d1b90a66d13a2ab3cb8dd7f29f3f8d520b143b063ccfbab6906b816040516110fd91906121f0565b60c881565b600081565b61153e611d24565b6001600160481b0360ff858116600886901b68ffffffffffffffff001617918216600090815260056020908152604080832087845290915290819020815160808101909252805491929091839116600481111561159757fe5b60048111156115a257fe5b8152905461010081046001600160c81b03166020830152600160d01b810460ff166040830152600160d81b900464ffffffffff1660609091015295945050505050565b60025460ff1681565b6002546201000090046001600160801b031681565b600254600160901b900464ffffffffff1681565b600081815260016020526040812061112e90611b03565b611636611a81565b60008281526004602081905260409182902080546001600160a01b0319166001600160a01b0387169081179091559151635c7d1b9b60e11b815285929163b8fa37369161168791879187910161223c565b600060405180830381600087803b1580156116a157600080fd5b505af11580156116b5573d6000803e3d6000fd5b5050505050505050565b6116d7600080516020612a5883398151915282611487565b156116f45760405162461bcd60e51b815260040161070f90612736565b60c86116fe611346565b1061171b5760405162461bcd60e51b815260040161070f90612518565b611733600080516020612a5883398151915282610e09565b7f03580ee9f53a62b7cb409a2cb56f9be87747dd15017afc5cef6eef321e4fb2c5816040516110fd91906121f0565b600082815260016020526040902060020154611780906105366119ab565b610e895760405162461bcd60e51b815260040161070f90612652565b600254610100900460ff1681565b6117b2611a81565b611374611b0e565b600061010082106117dd5760405162461bcd60e51b815260040161070f906125af565b5090565b6000600160801b82106117dd5760405162461bcd60e51b815260040161070f906124aa565b60006501000000000082106117dd5760405162461bcd60e51b815260040161070f906124e1565b6000611416836001600160a01b038416611b50565b6000611416836001600160a01b038416611b9a565b60005460ff16156113745760405162461bcd60e51b815260040161070f9061270c565b611885600033611487565b806118a357506118a3600080516020612a5883398151915233611487565b6113745760405162461bcd60e51b815260040161070f90612390565b600061141683836040518060400160405280601e81526020017f536166654d6174683a207375627472616374696f6e206f766572666c6f770000815250611bb2565b611919600080516020612a5883398151915233611487565b6113745760405162461bcd60e51b815260040161070f906127ee565b60008083602001516001600160c81b031661194f84611958565b16119392505050565b600061197c611975600080516020612a5883398151915284611108565b60016118bf565b6001901b92915050565b6000600160c81b82106117dd5760405162461bcd60e51b815260040161070f9061261b565b3390565b60008281526001602052604090206119c7908261182d565b15610e4d576119d46119ab565b6001600160a01b0316816001600160a01b0316837f2f8788117e7eff1d82e926ec794901d17c78024a50270940304540a733656f0d60405160405180910390a45050565b6000828152600160205260409020611a309082611bde565b15610e4d57611a3d6119ab565b6001600160a01b0316816001600160a01b0316837ff6391f5c32d9c69d2a47ea670b442974b53935d1edc7fd64eb21e047a839171b60405160405180910390a45050565b611a8c600033611487565b6113745760405162461bcd60e51b815260040161070f90612823565b611ab0611857565b6000805460ff191660011790556040517f62e78cea01bee320cd4e420270b5ea74000d11b0c9f74754ebdbfc544b05a25890611aed9033906121f0565b60405180910390a1565b60006114168383611bf3565b600061112e82611c38565b611b16611c3c565b6000805460ff191690556040517f5db9ee0a495bf2e6ff9c91a7834c1ba4fdd244a5e8aa4e537bd38aeae4b073aa90611aed9033906121f0565b6000611b5c8383611b9a565b611b925750815460018181018455600084815260208082209093018490558454848252828601909352604090209190915561112e565b50600061112e565b60009081526001919091016020526040902054151590565b60008184841115611bd65760405162461bcd60e51b815260040161070f91906122fb565b505050900390565b6000611416836001600160a01b038416611c5e565b81546000908210611c165760405162461bcd60e51b815260040161070f9061234e565b826000018281548110611c2557fe5b9060005260206000200154905092915050565b5490565b60005460ff166113745760405162461bcd60e51b815260040161070f90612445565b60008181526001830160205260408120548015611d1a5783546000198083019190810190600090879083908110611c9157fe5b9060005260206000200154905080876000018481548110611cae57fe5b600091825260208083209091019290925582815260018981019092526040902090840190558654879080611cde57fe5b6001900381819060005260206000200160009055905586600101600087815260200190815260200160002060009055600194505050505061112e565b600091505061112e565b604080516080810190915280600081526000602082018190526040820181905260609091015290565b60008083601f840112611d5e578182fd5b5081356001600160401b03811115611d74578182fd5b6020830191508360208083028501011115611d8e57600080fd5b9250929050565b60008083601f840112611da6578182fd5b5081356001600160401b03811115611dbc578182fd5b602083019150836020828501011115611d8e57600080fd5b80356001600160401b038116811461112e57600080fd5b803560ff8116811461112e57600080fd5b600060208284031215611e0d578081fd5b813561141681612a0c565b60008060408385031215611e2a578081fd5b8235611e3581612a0c565b91506020830135611e4581612a0c565b809150509250929050565b60008060008060808587031215611e65578182fd5b8435611e7081612a0c565b93506020850135611e8081612a0c565b92506040850135611e9081612a0c565b9396929550929360600135925050565b600080600060608486031215611eb4578283fd5b8335611ebf81612a0c565b9250602084013591506040840135611ed681612a0c565b809150509250925092565b60008060008060008060c08789031215611ef9578182fd5b8635611f0481612a0c565b9550602087013594506040870135611f1b81612a0c565b93506060870135611f2b81612a21565b92506080870135915060a0870135611f4281612a21565b809150509295509295509295565b60008060008060408587031215611f65578384fd5b84356001600160401b0380821115611f7b578586fd5b611f8788838901611d4d565b90965094506020870135915080821115611f9f578384fd5b50611fac87828801611d4d565b95989497509550505050565b600060208284031215611fc9578081fd5b5035919050565b60008060408385031215611fe2578182fd5b823591506020830135611e4581612a0c565b60008060408385031215612006578182fd5b50508035926020909101359150565b600080600060608486031215612029578081fd5b83356001600160481b0381168114611ebf578182fd5b600060208284031215612050578081fd5b6114168383611deb565b6000806000806060858703121561206f578182fd5b6120798686611deb565b93506020850135925060408501356001600160401b0381111561209a578283fd5b611fac87828801611d95565b6000806000606084860312156120ba578081fd5b6120c48585611deb565b92506120d38560208601611dd4565b9150604084013590509250925092565b600080600080608085870312156120f8578182fd5b6121028686611deb565b935060208501356001600160401b038116811461211d578283fd5b93969395505050506040820135916060013590565b600080600080600060808688031215612149578283fd5b6121538787611deb565b94506121628760208801611dd4565b935060408601356001600160401b0381111561217c578384fd5b61218888828901611d95565b96999598509660600135949350505050565b60008284528282602086013780602084860101526020601f19601f85011685010190509392505050565b60006bffffffffffffffffffffffff198560601b16825282846014840137910160140190815292915050565b6001600160a01b0391909116815260200190565b6001600160a01b039384168152919092166020820152604081019190915260600190565b901515815260200190565b90815260200190565b9182526001600160a01b0316602082015260400190565b9485526001600160a01b039390931660208501526001600160e01b03199182166040850152606084015216608082015260a00190565b6000848252604060208301526122a360408301848661219a565b95945050505050565b86815260ff861660208201526001600160401b03851660408201526001600160a01b038416606082015260a0608082018190526000906122ef908301848661219a565b98975050505050505050565b6000602080835283518082850152825b818110156123275785810183015185820160400152820161230b565b818111156123385783604083870101525b50601f01601f1916929092016040019392505050565b60208082526022908201527f456e756d657261626c655365743a20696e646578206f7574206f6620626f756e604082015261647360f01b606082015260800190565b6020808252601e908201527f73656e646572206973206e6f742072656c61796572206f722061646d696e0000604082015260600190565b6020808252602f908201527f416363657373436f6e74726f6c3a2073656e646572206d75737420626520616e60408201526e0818591b5a5b881d1bc819dc985b9d608a1b606082015260800190565b6020808252601590820152741c995b185e595c88185b1c9958591e481d9bdd1959605a1b604082015260600190565b60208082526014908201527314185d5cd8589b194e881b9bdd081c185d5cd95960621b604082015260600190565b6020808252601f908201527f6164647220646f65736e277420686176652072656c6179657220726f6c652100604082015260600190565b6020808252601e908201527f76616c756520646f6573206e6f742066697420696e2031323820626974730000604082015260600190565b6020808252601d908201527f76616c756520646f6573206e6f742066697420696e2034302062697473000000604082015260600190565b6020808252601690820152751c995b185e595c9cc81b1a5b5a5d081c995858da195960521b604082015260600190565b602080825260169082015275125b98dbdc9c9958dd08199959481cdd5c1c1b1a595960521b604082015260600190565b6020808252601c908201527f50726f706f73616c2063616e6e6f742062652063616e63656c6c656400000000604082015260600190565b6020808252601c908201527f76616c756520646f6573206e6f742066697420696e2038206269747300000000604082015260600190565b6020808252818101527f7265736f757263654944206e6f74206d617070656420746f2068616e646c6572604082015260600190565b6020808252601e908201527f76616c756520646f6573206e6f742066697420696e2032303020626974730000604082015260600190565b60208082526030908201527f416363657373436f6e74726f6c3a2073656e646572206d75737420626520616e60408201526f2061646d696e20746f207265766f6b6560801b606082015260800190565b6020808252818101527f50726f706f73616c206d75737420686176652050617373656420737461747573604082015260600190565b6020808252818101527f50726f706f73616c206e6f7420617420657870697279207468726573686f6c64604082015260600190565b60208082526010908201526f14185d5cd8589b194e881c185d5cd95960821b604082015260600190565b6020808252601e908201527f6164647220616c7265616479206861732072656c6179657220726f6c65210000604082015260600190565b60208082526017908201527f43616e6e6f742072656e6f756e6365206f6e6573656c66000000000000000000604082015260600190565b6020808252602a908201527f70726f706f73616c20616c7265616479207061737365642f65786563757465646040820152690bd8d85b98d95b1b195960b21b606082015260800190565b6020808252818101527f73656e64657220646f65736e277420686176652072656c6179657220726f6c65604082015260600190565b6020808252601e908201527f73656e64657220646f65736e277420686176652061646d696e20726f6c650000604082015260600190565b6020808252601f908201527f43757272656e742066656520697320657175616c20746f206e65772066656500604082015260600190565b60208082526019908201527f6e6f2068616e646c657220666f72207265736f75726365494400000000000000604082015260600190565b6020808252602f908201527f416363657373436f6e74726f6c3a2063616e206f6e6c792072656e6f756e636560408201526e103937b632b9903337b91039b2b63360891b606082015260800190565b8151608082019061292790612a01565b825260018060c81b03602084015116602083015260ff604084015116604083015264ffffffffff606084015116606083015292915050565b6001600160801b0391909116815260200190565b64ffffffffff91909116815260200190565b6001600160401b0391909116815260200190565b60ff91909116815260200190565b60ff93909316835260208301919091526001600160401b0316604082015260600190565b60ff851681526001600160401b0384166020820152608081016129ed84612a01565b604083015282606083015295945050505050565b8060058110610e0457fe5b6001600160a01b038116811461123857600080fd5b6001600160e01b03198116811461123857600080fdfe968626a768e76ba1363efe44e322a6c4900c5f084e0b45f35e294dfddaa9e0d5e2b7fb3b832174769106daebcfd6d1970523240dda11281102db9363b83b0dc4a2646970667358221220084c916015673cd729be90e36518f7359b419c4760a0d8a798ced03008b21de764736f6c634300060c0033",
  "immutableReferences": {},
  "source": "pragma solidity 0.6.12;\npragma experimental ABIEncoderV2;\n\nimport \"./utils/AccessControl.sol\";\nimport \"./utils/Pausable.sol\";\nimport \"./utils/SafeMath.sol\";\nimport \"./utils/SafeCast.sol\";\nimport \"./interfaces/IDepositExecute.sol\";\nimport \"./interfaces/IERCHandler.sol\";\nimport \"./interfaces/IGenericHandler.sol\";\n\n/**\n    @title Facilitates deposits, creation and voting of deposit proposals, and deposit executions.\n    @author ChainSafe Systems.\n */\ncontract Bridge is Pausable, AccessControl, SafeMath {\n    using SafeCast for *;\n\n    // Limit relayers number because proposal can fit only so much votes\n    uint256 constant public MAX_RELAYERS = 200;\n\n    uint8   public _chainID;\n    uint8   public _relayerThreshold;\n    uint128 public _fee;\n    uint40  public _expiry;\n\n    enum ProposalStatus {Inactive, Active, Passed, Executed, Cancelled}\n\n    struct Proposal {\n        ProposalStatus _status;\n        uint200 _yesVotes;      // bitmap, 200 maximum votes\n        uint8   _yesVotesTotal;\n        uint40  _proposedBlock; // 1099511627775 maximum block\n    }\n\n    // destinationChainID => number of deposits\n    mapping(uint8 => uint64) public _depositCounts;\n    // resourceID => handler address\n    mapping(bytes32 => address) public _resourceIDToHandlerAddress;\n    // destinationChainID + depositNonce => dataHash => Proposal\n    mapping(uint72 => mapping(bytes32 => Proposal)) private _proposals;\n\n    event RelayerThresholdChanged(uint256 newThreshold);\n    event RelayerAdded(address relayer);\n    event RelayerRemoved(address relayer);\n    event Deposit(\n        uint8   destinationChainID,\n        bytes32 resourceID,\n        uint64  depositNonce\n    );\n    event ProposalEvent(\n        uint8          originChainID,\n        uint64         depositNonce,\n        ProposalStatus status,\n        bytes32 dataHash\n    );\n    event ProposalVote(\n        uint8   originChainID,\n        uint64  depositNonce,\n        ProposalStatus status,\n        bytes32 dataHash\n    );\n\n    bytes32 public constant RELAYER_ROLE = keccak256(\"RELAYER_ROLE\");\n\n    modifier onlyAdmin() {\n        _onlyAdmin();\n        _;\n    }\n\n    modifier onlyAdminOrRelayer() {\n        _onlyAdminOrRelayer();\n        _;\n    }\n\n    modifier onlyRelayers() {\n        _onlyRelayers();\n        _;\n    }\n\n    function _onlyAdminOrRelayer() private view {\n        require(hasRole(DEFAULT_ADMIN_ROLE, msg.sender) || hasRole(RELAYER_ROLE, msg.sender),\n            \"sender is not relayer or admin\");\n    }\n\n    function _onlyAdmin() private view {\n        require(hasRole(DEFAULT_ADMIN_ROLE, msg.sender), \"sender doesn't have admin role\");\n    }\n\n    function _onlyRelayers() private view {\n        require(hasRole(RELAYER_ROLE, msg.sender), \"sender doesn't have relayer role\");\n    }\n\n    function _relayerBit(address relayer) private view returns(uint) {\n        return uint(1) << sub(AccessControl.getRoleMemberIndex(RELAYER_ROLE, relayer), 1);\n    }\n\n    function _hasVoted(Proposal memory proposal, address relayer) private view returns(bool) {\n        return (_relayerBit(relayer) & uint(proposal._yesVotes)) > 0;\n    }\n\n    /**\n        @notice Initializes Bridge, creates and grants {msg.sender} the admin role,\n        creates and grants {initialRelayers} the relayer role.\n        @param chainID ID of chain the Bridge contract exists on.\n        @param initialRelayers Addresses that should be initially granted the relayer role.\n        @param initialRelayerThreshold Number of votes needed for a deposit proposal to be considered passed.\n     */\n    constructor (uint8 chainID, address[] memory initialRelayers, uint256 initialRelayerThreshold, uint256 fee, uint256 expiry) public {\n        _chainID = chainID;\n        _relayerThreshold = initialRelayerThreshold.toUint8();\n        _fee = fee.toUint128();\n        _expiry = expiry.toUint40();\n\n        _setupRole(DEFAULT_ADMIN_ROLE, msg.sender);\n\n        for (uint256 i; i < initialRelayers.length; i++) {\n            grantRole(RELAYER_ROLE, initialRelayers[i]);\n        }\n    }\n\n    /**\n        @notice Returns true if {relayer} has voted on {destNonce} {dataHash} proposal.\n        @notice Naming left unchanged for backward compatibility.\n        @param destNonce destinationChainID + depositNonce of the proposal.\n        @param dataHash Hash of data to be provided when deposit proposal is executed.\n        @param relayer Address to check.\n     */\n    function _hasVotedOnProposal(uint72 destNonce, bytes32 dataHash, address relayer) public view returns(bool) {\n        return _hasVoted(_proposals[destNonce][dataHash], relayer);\n    }\n\n    /**\n        @notice Returns true if {relayer} has the relayer role.\n        @param relayer Address to check.\n     */\n    function isRelayer(address relayer) external view returns (bool) {\n        return hasRole(RELAYER_ROLE, relayer);\n    }\n\n    /**\n        @notice Removes admin role from {msg.sender} and grants it to {newAdmin}.\n        @notice Only callable by an address that currently has the admin role.\n        @param newAdmin Address that admin role will be granted to.\n     */\n    function renounceAdmin(address newAdmin) external onlyAdmin {\n        require(msg.sender != newAdmin, 'Cannot renounce oneself');\n        grantRole(DEFAULT_ADMIN_ROLE, newAdmin);\n        renounceRole(DEFAULT_ADMIN_ROLE, msg.sender);\n    }\n\n    /**\n        @notice Pauses deposits, proposal creation and voting, and deposit executions.\n        @notice Only callable by an address that currently has the admin role.\n     */\n    function adminPauseTransfers() external onlyAdmin {\n        _pause();\n    }\n\n    /**\n        @notice Unpauses deposits, proposal creation and voting, and deposit executions.\n        @notice Only callable by an address that currently has the admin role.\n     */\n    function adminUnpauseTransfers() external onlyAdmin {\n        _unpause();\n    }\n\n    /**\n        @notice Modifies the number of votes required for a proposal to be considered passed.\n        @notice Only callable by an address that currently has the admin role.\n        @param newThreshold Value {_relayerThreshold} will be changed to.\n        @notice Emits {RelayerThresholdChanged} event.\n     */\n    function adminChangeRelayerThreshold(uint256 newThreshold) external onlyAdmin {\n        _relayerThreshold = newThreshold.toUint8();\n        emit RelayerThresholdChanged(newThreshold);\n    }\n\n    /**\n        @notice Grants {relayerAddress} the relayer role.\n        @notice Only callable by an address that currently has the admin role, which is\n                checked in grantRole().\n        @param relayerAddress Address of relayer to be added.\n        @notice Emits {RelayerAdded} event.\n     */\n    function adminAddRelayer(address relayerAddress) external {\n        require(!hasRole(RELAYER_ROLE, relayerAddress), \"addr already has relayer role!\");\n        require(_totalRelayers() < MAX_RELAYERS, \"relayers limit reached\");\n        grantRole(RELAYER_ROLE, relayerAddress);\n        emit RelayerAdded(relayerAddress);\n    }\n\n    /**\n        @notice Removes relayer role for {relayerAddress}.\n        @notice Only callable by an address that currently has the admin role, which is\n                checked in revokeRole().\n        @param relayerAddress Address of relayer to be removed.\n        @notice Emits {RelayerRemoved} event.\n     */\n    function adminRemoveRelayer(address relayerAddress) external {\n        require(hasRole(RELAYER_ROLE, relayerAddress), \"addr doesn't have relayer role!\");\n        revokeRole(RELAYER_ROLE, relayerAddress);\n        emit RelayerRemoved(relayerAddress);\n    }\n\n    /**\n        @notice Sets a new resource for handler contracts that use the IERCHandler interface,\n        and maps the {handlerAddress} to {resourceID} in {_resourceIDToHandlerAddress}.\n        @notice Only callable by an address that currently has the admin role.\n        @param handlerAddress Address of handler resource will be set for.\n        @param resourceID ResourceID to be used when making deposits.\n        @param tokenAddress Address of contract to be called when a deposit is made and a deposited is executed.\n     */\n    function adminSetResource(address handlerAddress, bytes32 resourceID, address tokenAddress) external onlyAdmin {\n        _resourceIDToHandlerAddress[resourceID] = handlerAddress;\n        IERCHandler handler = IERCHandler(handlerAddress);\n        handler.setResource(resourceID, tokenAddress);\n    }\n\n    /**\n        @notice Sets a new resource for handler contracts that use the IGenericHandler interface,\n        and maps the {handlerAddress} to {resourceID} in {_resourceIDToHandlerAddress}.\n        @notice Only callable by an address that currently has the admin role.\n        @param handlerAddress Address of handler resource will be set for.\n        @param resourceID ResourceID to be used when making deposits.\n        @param contractAddress Address of contract to be called when a deposit is made and a deposited is executed.\n     */\n    function adminSetGenericResource(\n        address handlerAddress,\n        bytes32 resourceID,\n        address contractAddress,\n        bytes4 depositFunctionSig,\n        uint256 depositFunctionDepositerOffset,\n        bytes4 executeFunctionSig\n    ) external onlyAdmin {\n        _resourceIDToHandlerAddress[resourceID] = handlerAddress;\n        IGenericHandler handler = IGenericHandler(handlerAddress);\n        handler.setResource(resourceID, contractAddress, depositFunctionSig, depositFunctionDepositerOffset, executeFunctionSig);\n    }\n\n    /**\n        @notice Sets a resource as burnable for handler contracts that use the IERCHandler interface.\n        @notice Only callable by an address that currently has the admin role.\n        @param handlerAddress Address of handler resource will be set for.\n        @param tokenAddress Address of contract to be called when a deposit is made and a deposited is executed.\n     */\n    function adminSetBurnable(address handlerAddress, address tokenAddress) external onlyAdmin {\n        IERCHandler handler = IERCHandler(handlerAddress);\n        handler.setBurnable(tokenAddress);\n    }\n\n    /**\n        @notice Returns a proposal.\n        @param originChainID Chain ID deposit originated from.\n        @param depositNonce ID of proposal generated by proposal's origin Bridge contract.\n        @param dataHash Hash of data to be provided when deposit proposal is executed.\n        @return Proposal which consists of:\n        - _dataHash Hash of data to be provided when deposit proposal is executed.\n        - _yesVotes Number of votes in favor of proposal.\n        - _noVotes Number of votes against proposal.\n        - _status Current status of proposal.\n     */\n    function getProposal(uint8 originChainID, uint64 depositNonce, bytes32 dataHash) external view returns (Proposal memory) {\n        uint72 nonceAndID = (uint72(depositNonce) << 8) | uint72(originChainID);\n        return _proposals[nonceAndID][dataHash];\n    }\n\n    /**\n        @notice Returns total relayers number.\n        @notice Added for backwards compatibility.\n     */\n    function _totalRelayers() public view returns (uint) {\n        return AccessControl.getRoleMemberCount(RELAYER_ROLE);\n    }\n\n    /**\n        @notice Changes deposit fee.\n        @notice Only callable by admin.\n        @param newFee Value {_fee} will be updated to.\n     */\n    function adminChangeFee(uint256 newFee) external onlyAdmin {\n        require(_fee != newFee, \"Current fee is equal to new fee\");\n        _fee = newFee.toUint128();\n    }\n\n    /**\n        @notice Used to manually withdraw funds from ERC safes.\n        @param handlerAddress Address of handler to withdraw from.\n        @param tokenAddress Address of token to withdraw.\n        @param recipient Address to withdraw tokens to.\n        @param amountOrTokenID Either the amount of ERC20 tokens or the ERC721 token ID to withdraw.\n     */\n    function adminWithdraw(\n        address handlerAddress,\n        address tokenAddress,\n        address recipient,\n        uint256 amountOrTokenID\n    ) external onlyAdmin {\n        IERCHandler handler = IERCHandler(handlerAddress);\n        handler.withdraw(tokenAddress, recipient, amountOrTokenID);\n    }\n\n    /**\n        @notice Initiates a transfer using a specified handler contract.\n        @notice Only callable when Bridge is not paused.\n        @param destinationChainID ID of chain deposit will be bridged to.\n        @param resourceID ResourceID used to find address of handler to be used for deposit.\n        @param data Additional data to be passed to specified handler.\n        @notice Emits {Deposit} event.\n     */\n    function deposit(uint8 destinationChainID, bytes32 resourceID, bytes calldata data) external payable whenNotPaused {\n        require(msg.value == _fee, \"Incorrect fee supplied\");\n\n        address handler = _resourceIDToHandlerAddress[resourceID];\n        require(handler != address(0), \"resourceID not mapped to handler\");\n\n        uint64 depositNonce = ++_depositCounts[destinationChainID];\n\n        IDepositExecute depositHandler = IDepositExecute(handler);\n        depositHandler.deposit(resourceID, destinationChainID, depositNonce, msg.sender, data);\n\n        emit Deposit(destinationChainID, resourceID, depositNonce);\n    }\n\n    /**\n        @notice When called, {msg.sender} will be marked as voting in favor of proposal.\n        @notice Only callable by relayers when Bridge is not paused.\n        @param chainID ID of chain deposit originated from.\n        @param depositNonce ID of deposited generated by origin Bridge contract.\n        @param dataHash Hash of data provided when deposit was made.\n        @notice Proposal must not have already been passed or executed.\n        @notice {msg.sender} must not have already voted on proposal.\n        @notice Emits {ProposalEvent} event with status indicating the proposal status.\n        @notice Emits {ProposalVote} event.\n     */\n    function voteProposal(uint8 chainID, uint64 depositNonce, bytes32 resourceID, bytes32 dataHash) external onlyRelayers whenNotPaused {\n\n        uint72 nonceAndID = (uint72(depositNonce) << 8) | uint72(chainID);\n        Proposal memory proposal = _proposals[nonceAndID][dataHash];\n\n        require(_resourceIDToHandlerAddress[resourceID] != address(0), \"no handler for resourceID\");\n        require(uint(proposal._status) <= 1, \"proposal already passed/executed/cancelled\");\n        require(!_hasVoted(proposal, msg.sender), \"relayer already voted\");\n\n        if (proposal._status == ProposalStatus.Inactive) {\n            proposal = Proposal({\n                _status : ProposalStatus.Active,\n                _yesVotes : 0,\n                _yesVotesTotal : 0,\n                _proposedBlock : uint40(block.number) // Overflow is desired.\n            });\n\n            emit ProposalEvent(chainID, depositNonce, ProposalStatus.Active, dataHash);\n        } else if (uint40(sub(block.number, proposal._proposedBlock)) > _expiry) {\n            // if the number of blocks that has passed since this proposal was\n            // submitted exceeds the expiry threshold set, cancel the proposal\n            proposal._status = ProposalStatus.Cancelled;\n\n            emit ProposalEvent(chainID, depositNonce, ProposalStatus.Cancelled, dataHash);\n        }\n\n        if (proposal._status != ProposalStatus.Cancelled) {\n            proposal._yesVotes = (proposal._yesVotes | _relayerBit(msg.sender)).toUint200();\n            proposal._yesVotesTotal++; // TODO: check if bit counting is cheaper.\n\n            emit ProposalVote(chainID, depositNonce, proposal._status, dataHash);\n\n            // Finalize if _relayerThreshold has been reached\n            if (proposal._yesVotesTotal >= _relayerThreshold) {\n                proposal._status = ProposalStatus.Passed;\n\n                emit ProposalEvent(chainID, depositNonce, ProposalStatus.Passed, dataHash);\n            }\n        }\n        _proposals[nonceAndID][dataHash] = proposal;\n    }\n\n    /**\n        @notice Cancels a deposit proposal that has not been executed yet.\n        @notice Only callable by relayers when Bridge is not paused.\n        @param chainID ID of chain deposit originated from.\n        @param depositNonce ID of deposited generated by origin Bridge contract.\n        @param dataHash Hash of data originally provided when deposit was made.\n        @notice Proposal must be past expiry threshold.\n        @notice Emits {ProposalEvent} event with status {Cancelled}.\n     */\n    function cancelProposal(uint8 chainID, uint64 depositNonce, bytes32 dataHash) public onlyAdminOrRelayer {\n        uint72 nonceAndID = (uint72(depositNonce) << 8) | uint72(chainID);\n        Proposal memory proposal = _proposals[nonceAndID][dataHash];\n        ProposalStatus currentStatus = proposal._status;\n\n        require(currentStatus == ProposalStatus.Active || currentStatus == ProposalStatus.Passed,\n            \"Proposal cannot be cancelled\");\n        require(uint40(sub(block.number, proposal._proposedBlock)) > _expiry, \"Proposal not at expiry threshold\");\n\n        proposal._status = ProposalStatus.Cancelled;\n        _proposals[nonceAndID][dataHash] = proposal;\n\n        emit ProposalEvent(chainID, depositNonce, ProposalStatus.Cancelled, dataHash);\n    }\n\n    /**\n        @notice Executes a deposit proposal that is considered passed using a specified handler contract.\n        @notice Only callable by relayers when Bridge is not paused.\n        @param chainID ID of chain deposit originated from.\n        @param resourceID ResourceID to be used when making deposits.\n        @param depositNonce ID of deposited generated by origin Bridge contract.\n        @param data Data originally provided when deposit was made.\n        @notice Proposal must have Passed status.\n        @notice Hash of {data} must equal proposal's {dataHash}.\n        @notice Emits {ProposalEvent} event with status {Executed}.\n     */\n    function executeProposal(uint8 chainID, uint64 depositNonce, bytes calldata data, bytes32 resourceID) external onlyRelayers whenNotPaused {\n        address handler = _resourceIDToHandlerAddress[resourceID];\n        uint72 nonceAndID = (uint72(depositNonce) << 8) | uint72(chainID);\n        bytes32 dataHash = keccak256(abi.encodePacked(handler, data));\n        Proposal storage proposal = _proposals[nonceAndID][dataHash];\n\n        require(proposal._status == ProposalStatus.Passed, \"Proposal must have Passed status\");\n\n        proposal._status = ProposalStatus.Executed;\n\n        IDepositExecute depositHandler = IDepositExecute(handler);\n        depositHandler.executeProposal(resourceID, data);\n\n        emit ProposalEvent(chainID, depositNonce, ProposalStatus.Executed, dataHash);\n    }\n\n    /**\n        @notice Transfers eth in the contract to the specified addresses. The parameters addrs and amounts are mapped 1-1.\n        This means that the address at index 0 for addrs will receive the amount (in WEI) from amounts at index 0.\n        @param addrs Array of addresses to transfer {amounts} to.\n        @param amounts Array of amonuts to transfer to {addrs}.\n     */\n    function transferFunds(address payable[] calldata addrs, uint[] calldata amounts) external onlyAdmin {\n        for (uint256 i = 0; i < addrs.length; i++) {\n            addrs[i].transfer(amounts[i]);\n        }\n    }\n}\n",
  "sourcePath": "/Users/liweitao/git/chainbridge-solidity/contracts/Bridge.sol",
  "compiler": {
    "name": "solc",
    "version": "0.6.12+commit.27d51765.Emscripten.clang"
  },
  "schemaVersion": "3.1.0",
  "updatedAt": "2021-09-09T06:09:31.638Z",
  "devdoc": {
    "author": "ChainSafe Systems.",
    "kind": "dev",
    "methods": {
      "_hasVotedOnProposal(uint72,bytes32,address)": {
        "params": {
          "dataHash": "Hash of data to be provided when deposit proposal is executed.",
          "destNonce": "destinationChainID + depositNonce of the proposal.",
          "relayer": "Address to check."
        }
      },
      "adminAddRelayer(address)": {
        "params": {
          "relayerAddress": "Address of relayer to be added."
        }
      },
      "adminChangeFee(uint256)": {
        "params": {
          "newFee": "Value {_fee} will be updated to."
        }
      },
      "adminChangeRelayerThreshold(uint256)": {
        "params": {
          "newThreshold": "Value {_relayerThreshold} will be changed to."
        }
      },
      "adminRemoveRelayer(address)": {
        "params": {
          "relayerAddress": "Address of relayer to be removed."
        }
      },
      "adminSetBurnable(address,address)": {
        "params": {
          "handlerAddress": "Address of handler resource will be set for.",
          "tokenAddress": "Address of contract to be called when a deposit is made and a deposited is executed."
        }
      },
      "adminSetGenericResource(address,bytes32,address,bytes4,uint256,bytes4)": {
        "params": {
          "contractAddress": "Address of contract to be called when a deposit is made and a deposited is executed.",
          "handlerAddress": "Address of handler resource will be set for.",
          "resourceID": "ResourceID to be used when making deposits."
        }
      },
      "adminSetResource(address,bytes32,address)": {
        "params": {
          "handlerAddress": "Address of handler resource will be set for.",
          "resourceID": "ResourceID to be used when making deposits.",
          "tokenAddress": "Address of contract to be called when a deposit is made and a deposited is executed."
        }
      },
      "adminWithdraw(address,address,address,uint256)": {
        "params": {
          "amountOrTokenID": "Either the amount of ERC20 tokens or the ERC721 token ID to withdraw.",
          "handlerAddress": "Address of handler to withdraw from.",
          "recipient": "Address to withdraw tokens to.",
          "tokenAddress": "Address of token to withdraw."
        }
      },
      "cancelProposal(uint8,uint64,bytes32)": {
        "params": {
          "chainID": "ID of chain deposit originated from.",
          "dataHash": "Hash of data originally provided when deposit was made.",
          "depositNonce": "ID of deposited generated by origin Bridge contract."
        }
      },
      "constructor": {
        "params": {
          "chainID": "ID of chain the Bridge contract exists on.",
          "initialRelayerThreshold": "Number of votes needed for a deposit proposal to be considered passed.",
          "initialRelayers": "Addresses that should be initially granted the relayer role."
        }
      },
      "deposit(uint8,bytes32,bytes)": {
        "params": {
          "data": "Additional data to be passed to specified handler.",
          "destinationChainID": "ID of chain deposit will be bridged to.",
          "resourceID": "ResourceID used to find address of handler to be used for deposit."
        }
      },
      "executeProposal(uint8,uint64,bytes,bytes32)": {
        "params": {
          "chainID": "ID of chain deposit originated from.",
          "data": "Data originally provided when deposit was made.",
          "depositNonce": "ID of deposited generated by origin Bridge contract.",
          "resourceID": "ResourceID to be used when making deposits."
        }
      },
      "getProposal(uint8,uint64,bytes32)": {
        "params": {
          "dataHash": "Hash of data to be provided when deposit proposal is executed.",
          "depositNonce": "ID of proposal generated by proposal's origin Bridge contract.",
          "originChainID": "Chain ID deposit originated from."
        },
        "returns": {
          "_0": "Proposal which consists of: - _dataHash Hash of data to be provided when deposit proposal is executed. - _yesVotes Number of votes in favor of proposal. - _noVotes Number of votes against proposal. - _status Current status of proposal."
        }
      },
      "getRoleAdmin(bytes32)": {
        "details": "Returns the admin role that controls `role`. See {grantRole} and {revokeRole}. To change a role's admin, use {_setRoleAdmin}."
      },
      "getRoleMember(bytes32,uint256)": {
        "details": "Returns one of the accounts that have `role`. `index` must be a value between 0 and {getRoleMemberCount}, non-inclusive. Role bearers are not sorted in any particular way, and their ordering may change at any point. WARNING: When using {getRoleMember} and {getRoleMemberCount}, make sure you perform all queries on the same block. See the following https://forum.openzeppelin.com/t/iterating-over-elements-on-enumerableset-in-openzeppelin-contracts/2296[forum post] for more information."
      },
      "getRoleMemberCount(bytes32)": {
        "details": "Returns the number of accounts that have `role`. Can be used together with {getRoleMember} to enumerate all bearers of a role."
      },
      "getRoleMemberIndex(bytes32,address)": {
        "details": "Returns the index of the account that have `role`."
      },
      "grantRole(bytes32,address)": {
        "details": "Grants `role` to `account`. If `account` had not been already granted `role`, emits a {RoleGranted} event. Requirements: - the caller must have ``role``'s admin role."
      },
      "hasRole(bytes32,address)": {
        "details": "Returns `true` if `account` has been granted `role`."
      },
      "isRelayer(address)": {
        "params": {
          "relayer": "Address to check."
        }
      },
      "paused()": {
        "details": "Returns true if the contract is paused, and false otherwise."
      },
      "renounceAdmin(address)": {
        "params": {
          "newAdmin": "Address that admin role will be granted to."
        }
      },
      "renounceRole(bytes32,address)": {
        "details": "Revokes `role` from the calling account. Roles are often managed via {grantRole} and {revokeRole}: this function's purpose is to provide a mechanism for accounts to lose their privileges if they are compromised (such as when a trusted device is misplaced). If the calling account had been granted `role`, emits a {RoleRevoked} event. Requirements: - the caller must be `account`."
      },
      "revokeRole(bytes32,address)": {
        "details": "Revokes `role` from `account`. If `account` had been granted `role`, emits a {RoleRevoked} event. Requirements: - the caller must have ``role``'s admin role."
      },
      "transferFunds(address[],uint256[])": {
        "params": {
          "addrs": "Array of addresses to transfer {amounts} to.",
          "amounts": "Array of amonuts to transfer to {addrs}."
        }
      },
      "voteProposal(uint8,uint64,bytes32,bytes32)": {
        "params": {
          "chainID": "ID of chain deposit originated from.",
          "dataHash": "Hash of data provided when deposit was made.",
          "depositNonce": "ID of deposited generated by origin Bridge contract."
        }
      }
    },
    "title": "Facilitates deposits, creation and voting of deposit proposals, and deposit executions.",
    "version": 1
  },
  "userdoc": {
    "kind": "user",
    "methods": {
      "_hasVotedOnProposal(uint72,bytes32,address)": {
        "notice": "Returns true if {relayer} has voted on {destNonce} {dataHash} proposal.Naming left unchanged for backward compatibility."
      },
      "_totalRelayers()": {
        "notice": "Returns total relayers number.Added for backwards compatibility."
      },
      "adminAddRelayer(address)": {
        "notice": "Grants {relayerAddress} the relayer role.Only callable by an address that currently has the admin role, which is checked in grantRole().Emits {RelayerAdded} event."
      },
      "adminChangeFee(uint256)": {
        "notice": "Changes deposit fee.Only callable by admin."
      },
      "adminChangeRelayerThreshold(uint256)": {
        "notice": "Modifies the number of votes required for a proposal to be considered passed.Only callable by an address that currently has the admin role.Emits {RelayerThresholdChanged} event."
      },
      "adminPauseTransfers()": {
        "notice": "Pauses deposits, proposal creation and voting, and deposit executions.Only callable by an address that currently has the admin role."
      },
      "adminRemoveRelayer(address)": {
        "notice": "Removes relayer role for {relayerAddress}.Only callable by an address that currently has the admin role, which is checked in revokeRole().Emits {RelayerRemoved} event."
      },
      "adminSetBurnable(address,address)": {
        "notice": "Sets a resource as burnable for handler contracts that use the IERCHandler interface.Only callable by an address that currently has the admin role."
      },
      "adminSetGenericResource(address,bytes32,address,bytes4,uint256,bytes4)": {
        "notice": "Sets a new resource for handler contracts that use the IGenericHandler interface, and maps the {handlerAddress} to {resourceID} in {_resourceIDToHandlerAddress}.Only callable by an address that currently has the admin role."
      },
      "adminSetResource(address,bytes32,address)": {
        "notice": "Sets a new resource for handler contracts that use the IERCHandler interface, and maps the {handlerAddress} to {resourceID} in {_resourceIDToHandlerAddress}.Only callable by an address that currently has the admin role."
      },
      "adminUnpauseTransfers()": {
        "notice": "Unpauses deposits, proposal creation and voting, and deposit executions.Only callable by an address that currently has the admin role."
      },
      "adminWithdraw(address,address,address,uint256)": {
        "notice": "Used to manually withdraw funds from ERC safes."
      },
      "cancelProposal(uint8,uint64,bytes32)": {
        "notice": "Cancels a deposit proposal that has not been executed yet.Only callable by relayers when Bridge is not paused.Proposal must be past expiry threshold.Emits {ProposalEvent} event with status {Cancelled}."
      },
      "constructor": "Initializes Bridge, creates and grants {msg.sender} the admin role, creates and grants {initialRelayers} the relayer role.",
      "deposit(uint8,bytes32,bytes)": {
        "notice": "Initiates a transfer using a specified handler contract.Only callable when Bridge is not paused.Emits {Deposit} event."
      },
      "executeProposal(uint8,uint64,bytes,bytes32)": {
        "notice": "Executes a deposit proposal that is considered passed using a specified handler contract.Only callable by relayers when Bridge is not paused.Proposal must have Passed status.Hash of {data} must equal proposal's {dataHash}.Emits {ProposalEvent} event with status {Executed}."
      },
      "getProposal(uint8,uint64,bytes32)": {
        "notice": "Returns a proposal."
      },
      "isRelayer(address)": {
        "notice": "Returns true if {relayer} has the relayer role."
      },
      "renounceAdmin(address)": {
        "notice": "Removes admin role from {msg.sender} and grants it to {newAdmin}.Only callable by an address that currently has the admin role."
      },
      "transferFunds(address[],uint256[])": {
        "notice": "Transfers eth in the contract to the specified addresses. The parameters addrs and amounts are mapped 1-1. This means that the address at index 0 for addrs will receive the amount (in WEI) from amounts at index 0."
      },
      "voteProposal(uint8,uint64,bytes32,bytes32)": {
        "notice": "When called, {msg.sender} will be marked as voting in favor of proposal.Only callable by relayers when Bridge is not paused.Proposal must not have already been passed or executed.{msg.sender} must not have already voted on proposal.Emits {ProposalEvent} event with status indicating the proposal status.Emits {ProposalVote} event."
      }
    },
    "version": 1
  }
}