{
  "contractName": "ClaimTestToken",
  "abi": [
    {
      "inputs": [
        {
          "internalType": "address",
          "name": "tokenAddress",
          "type": "address"
        }
      ],
      "stateMutability": "nonpayable",
      "type": "constructor"
    },
    {
      "inputs": [
        {
          "internalType": "address",
          "name": "",
          "type": "address"
        }
      ],
      "name": "_claimRecords",
      "outputs": [
        {
          "internalType": "bool",
          "name": "",
          "type": "bool"
        }
      ],
      "stateMutability": "view",
      "type": "function",
      "constant": true
    },
    {
      "inputs": [],
      "name": "claim",
      "outputs": [],
      "stateMutability": "nonpayable",
      "type": "function"
    }
  ],
  "bytecode": "0x608060405268056bc75e2d6310000060025534801561001d57600080fd5b506040516103973803806103978339818101604052602081101561004057600080fd5b5051600080546001600160a01b03199081163317909155600180546001600160a01b03909316929091169190911790556103188061007f6000396000f3fe608060405234801561001057600080fd5b50600436106100365760003560e01c80634e71d92d1461003b578063523f2b5b14610045575b600080fd5b61004361007f565b005b61006b6004803603602081101561005b57600080fd5b50356001600160a01b0316610110565b604080519115158252519081900360200190f35b3360009081526003602052604090205460ff161515600114156100d3576040805162461bcd60e51b815260206004820152600760248201526618db185a5b595960ca1b604482015290519081900360640190fd5b336000818152600360205260409020805460ff19166001908117909155546002546001600160a01b03919091169161010d91839190610125565b50565b60036020526000908152604090205460ff1681565b604080516001600160a01b038416602482015260448082018490528251808303909101815260649091019091526020810180516001600160e01b031663a9059cbb60e01b17905261017790849061017c565b505050565b60006060836001600160a01b0316836040518082805190602001908083835b602083106101ba5780518252601f19909201916020918201910161019b565b6001836020036101000a0380198251168184511680821785525050505050509050019150506000604051808303816000865af19150503d806000811461021c576040519150601f19603f3d011682016040523d82523d6000602084013e610221565b606091505b50915091508161026d576040805162461bcd60e51b8152602060048201526012602482015271115490cc8c0e8818d85b1b0819985a5b195960721b604482015290519081900360640190fd5b8051156102dc5780806020019051602081101561028957600080fd5b50516102dc576040805162461bcd60e51b815260206004820181905260248201527f45524332303a206f7065726174696f6e20646964206e6f742073756363656564604482015290519081900360640190fd5b5050505056fea26469706673582212205be43a1313d23979c88aa4555da8e90f1e0b0cdf3f10d66f27be36617f84893b64736f6c634300060c0033",
  "immutableReferences": {},
  "source": "pragma solidity 0.6.12;\n\nimport \"@openzeppelin/contracts/math/SafeMath.sol\";\nimport \"@openzeppelin/contracts/token/ERC20/IERC20.sol\";\nimport \"@openzeppelin/contracts/presets/ERC20PresetMinterPauser.sol\";\nimport \"@openzeppelin/contracts/token/ERC20/ERC20Burnable.sol\";\n\ncontract ClaimTestToken {\n    using SafeMath for uint256;\n    address _owner;\n    address _tokenAddress;\n    uint256 _claimSize = 100 * 10**18;\n    mapping(address => bool) public _claimRecords;\n\n    constructor(address tokenAddress) public {\n      _owner = msg.sender;\n      _tokenAddress = tokenAddress;\n    }\n    /**\n        @notice claim test token.\n     */\n    function claim() external {\n        require(_claimRecords[msg.sender]!=true,\"claimed\");\n        _claimRecords[msg.sender] = true;\n        IERC20 erc20 = IERC20(_tokenAddress);\n        _safeTransfer(erc20, msg.sender, _claimSize);\n    }\n\n    /**\n        @notice used to transfer ERC20s safely\n        @param token Token instance to transfer\n        @param to Address to transfer token to\n        @param value Amount of token to transfer\n     */\n    function _safeTransfer(IERC20 token, address to, uint256 value) private {\n        _safeCall(token, abi.encodeWithSelector(token.transfer.selector, to, value));\n    }\n\n\n    /**\n        @notice used to transfer ERC20s safely\n        @param token Token instance to transfer\n        @param from Address to transfer token from\n        @param to Address to transfer token to\n        @param value Amount of token to transfer\n     */\n    function _safeTransferFrom(IERC20 token, address from, address to, uint256 value) private {\n        _safeCall(token, abi.encodeWithSelector(token.transferFrom.selector, from, to, value));\n    }\n\n    /**\n        @notice used to make calls to ERC20s safely\n        @param token Token instance call targets\n        @param data encoded call data\n     */\n    function _safeCall(IERC20 token, bytes memory data) private {        \n        (bool success, bytes memory returndata) = address(token).call(data);\n        require(success, \"ERC20: call failed\");\n\n        if (returndata.length > 0) {\n\n            require(abi.decode(returndata, (bool)), \"ERC20: operation did not succeed\");\n        }\n    }\n\n}\n",
  "sourcePath": "/home/lwt/ibridge/ibridge-solidity/contracts/ClaimTestToken.sol",
  "compiler": {
    "name": "solc",
    "version": "0.6.12+commit.27d51765.Emscripten.clang"
  },
  "schemaVersion": "3.4.3",
  "updatedAt": "2021-10-05T12:38:25.900Z",
  "networkType": "ethereum",
  "devdoc": {
    "kind": "dev",
    "methods": {},
    "version": 1
  },
  "userdoc": {
    "kind": "user",
    "methods": {
      "claim()": {
        "notice": "claim test token."
      }
    },
    "version": 1
  }
}